:020000040800F2
:1000000000000120011C0008E11B0008E11B0008A2
:10001000E11B0008E11B0008E11B000800000000D4
:10002000000000000000000000000000E11B0008CC
:10003000E11B000800000000E11B0008E51B0008B0
:10004000E11B0008E11B0008E11B0008E11B0008A0
:10005000E11B0008E11B0008E11B0008E11B000890
:10006000E11B0008E11B0008E11B0008E11B000880
:10007000E11B0008E11B0008E11B0008E11B000870
:10008000E11B0008E11B0008E11B0008E11B000860
:10009000E11B0008E11B0008E11B0008E11B000850
:1000A000E11B0008E11B0008E11B0008E11B000840
:1000B000F9080008E11B0008E11B0008E11B00082B
:1000C000E11B0008E11B0008E11B0008E11B000820
:1000D000E11B0008B126000811270008E11B0008F9
:1000E000E11B0008E11B0008E11B0008E11B000800
:1000F000E11B0008E11B0008E11B0008E11B0008F0
:10010000E11B0008E11B0008E11B0008E11B0008DF
:10011000E11B0008E11B0008E11B0008E11B0008CF
:10012000E11B0008E11B0008E11B0008E11B0008BF
:10013000E11B0008E11B0008E11B0008E11B0008AF
:10014000E11B0008E11B0008E11B0008652D000809
:10015000E11B0008E11B0008E11B000875270008EF
:10016000E11B0008E11B0008E11B0008E11B00087F
:10017000E11B0008E11B0008E11B0008E11B00086F
:08018000E11B0008E11B00086F
:1001880030B585B0054601A801F064FF154B164A45
:100198001B68164CA2FB03234FF6FF709B0C002232
:1001A80001A902902046ADF80430ADF80C20ADF856
:1001B800062001F00DFF0121204601F053FF636A7C
:1001C8009BB2ADF80430636ABDF8042092B29B1A62
:1001D800AB42F8D90548002105B0BDE8304001F030
:1001E80041BF00BF6000002083DE1B430044014084
:1001F8002DE9F0470189684D0446406801F04AFE40
:1002080044F62060FFF7BCFF6068218901F040FEDA
:100218001E20FFF7B5FF04E0FFF7B2FF013D00F035
:10022800B1802189606801F02DFE0128F4D0218970
:10023800606801F027FE002840F0A4805020FFF7F6
:100248009FFF512504E0FFF79BFF013D00F09D80D3
:100258002189606801F016FE03460120002BF2D0C8
:100268005020FFF78DFF512504E0FFF789FF013D7E
:1002780000F08B802189606801F004FE0128F4D029
:1002880004F10C0804F1110A4FF0010900270726B0
:10029800652503E0FFF774FF013D39D021896068C7
:1002A80001F0F0FD03460120002BF3D02820FFF7D2
:1002B80067FF2189606801F0E5FD18B109FA06F3C6
:1002C8003B43DFB2792503E0FFF75AFF013D23D016
:1002D8002189606801F0D6FD0128F5D0013ED7D20A
:1002E80008F8017FC245D1D1617BA27BE07B257CE8
:1002F800677C8B1803442B44DBB2BB4248D1237B79
:10030800012B2DD0022B0BD0DBB13046BDE8F08796
:100318006FF00300BDE8F0876FF00400BDE8F087D8
:100328000302020603F4FE43B4F80D2043EA050372
:1003380048BF5B4252BA9BB292B26382A28200204B
:10034800E8E72E0648BFC04300EB800005F00F0326
:1003580003EB400301EB81019BB202EB4102ECE7A6
:1003680005F00F030344000646BFC3EB4330C3EB5D
:10037800800303EB83035B0001EB81019BB202EB7B
:100388004102DAE76FF00100C4E76FF00200C1E74D
:100398006FF00500BEE700BFA18601002DE9F0411E
:1003A80082B0044615461E46BDF820800F464FF41D
:1003B8000030012101F0F4FD284627730121256052
:1003C8006660A4F8088001F0C7FD2289064B6068C2
:1003D8006946CDE9002301F00BFD2189606801F031
:1003E80057FD02B0BDE8F0810100010100B501210F
:1003F80083B0022001F0B0FD0323002205488DF8E8
:100408000430694600938DF8072001F0F1FC03B031
:100418005DF804FB0004024030B50D4C87B00121A3
:100428004FF4807001F0BCFD012500236946204689
:10043800CDE9033302930093ADF804308DF81450DE
:1004480001F046FC2946204601F06AFC07B030BDA1
:1004580000200140014604230148012201F06ABC42
:100468000020014008B5074801F0B2FC0548022108
:1004780001F0B8FC0028F9D0BDE80840014801F0B7
:10048800ADBC00BF0020014070B5851D84B01F4E73
:1004980004462946062202A800F052FE31460622EA
:1004A800284600F04DFE02A90622204600F048FE2C
:1004B800174BE36003F1417303F5FD3304F11C05A9
:1004C800236104224FF40073A38229460DEB020036
:1004D80000F036FE3146062204F1160000F030FE28
:1004E8000C490422284600F02BFE02A9062204F13A
:1004F800200000F025FE04220DEB020104F1260085
:1005080000F01EFE2A2004B070BD00BF08000020C5
:10051800080600014402002070B5174E0C4606225A
:1005280031460546A01800F00BFE0622FF212046A2
:1005380000F026FE114B2361114AE2604FF48073EC
:10054800A3823146062204F1160000F0F9FD0D4998
:10055800042204F11C0000F0F3FD0622002104F13E
:10056800200000F00DFE0422294604F1260000F0C8
:10057800E7FD2A2070BD00BF08000020080006041F
:1005880008060001440200202DE9F0411B4F0646F1
:1005980088463D46002429460422304600F0DAFD0C
:1005A8000A35F0B10134102CF5D1154C206800EB58
:1005B8008000314607EB4000042200F0C1FD2368AB
:1005C80003EB830307EB430006224146043000F0A7
:1005D800B7FD2368013303F00F0300202360BDE853
:1005E800F08104EB840407EB440006224146043002
:1005F80000F0A6FD0120BDE8F08100BF7C010020CD
:10060800780100202DE9F0410E4F064688463D4608
:10061800002429460422304600F09CFD0A3528B102
:100628000134102CF5D10020BDE8F08104EB8404DE
:1006380007EB44070622391D404600F081FD0120E2
:10064800BDE8F0817C0100200249034B08600022CC
:100658001A607047200200201C02002000B54FF0ED
:10066800000E62F3070E62F30F2E00F5E66C01E050
:10067800604504D0036802465C30002BF8D10023A3
:1006880010201160A2F804E00F21C2E91201C2E9AA
:10069800143393655DF804FB10B484466346002266
:1006A80004E00132142A03F15C03F7D01968002929
:1006B800F4D058790138C0B258710028F1D1054CEE
:1006C80093F804C0226083F805C0034A5DF8044B20
:1006D80013600847000000201C0200202DE9F041AB
:1006E800042284B006460C46A0F10E0700F1100162
:1006F8000DEB020000F024FD01A804F039FA20B93E
:10070800314901A804F044FAE8B102AD0622FF21FC
:10071800284600F035FD2D490622A6F1080000F014
:100728000FFD0E3429460622384600F009FDA4B212
:10073800082326F8023C2146384601F0A3FE20464D
:1007480004B0BDE8F08101A804F04EFA18BB2049B6
:100758004A780B7813438A781343CA78134301D134
:1007680002ADD8E7184A01A804F0E6F928B302ADAB
:10077800294601A8FFF746FF80460028CBD1394615
:1007880001A8FFF7C9FE00F10E0189B2384601F051
:1007980079FE4446D3E79DF80530BDF80620ADF84C
:1007A8000C2003F07F0301218DF80B305E23ADF898
:1007B800081002AD8DF80A30ADE7042205490DEBAB
:1007C800020000F0BDFCD2E7400200200800002033
:1007D800440200203C02002070B5A0F10E0504463A
:1007E800284601F07FFE00280EDD284604F098F91F
:1007F80060B134F8023C082B13D0B3F5C16F03D1B4
:100808002388B3F5807F2FD0002070BD284604F0E0
:100818005BF90028EDD1284604F06CF90028E8D1EE
:10082800F2E7304E6588304604F0A2F990B3637A57
:10083800012BE9D1B5F50D4FE6D1042204F11001E1
:10084800304600F07DFC2848042204F10C0100F039
:1008580077FC3378BF2B2BD85BB2002B3DDB38DD20
:10086800224BFF221A60CFE76388082BCCD1A288DD
:1008780040F206439A42C7D1E3885BBA9BB2012B88
:100888000BD0022BC0D104F1080104F10E00FFF7D0
:100898007BFEB9E768BA80B270BD1249042204F140
:1008A800180000F057FC60B1E3885BBA9BB2E8E738
:1008B8004033DBB21F2B0CD80C4B6FF07F421A6011
:1008C800A2E72846FFF7E0FD81B2284601F0DAFDED
:1008D8009AE7064B00221A6096E7044B4FF6FF7220
:1008E8001A6091E7440200203C02002040020020E8
:1008F80010B501214FF0804001F046FCD8B10E4AF6
:10090800138801339BB2032B07D8BDE8104001219F
:100918004FF08040138001F041BC084C0849012386
:100928000020236010800B60BDE8104001214FF0CB
:10093800804001F033BC10BD240200202C020020AE
:100948002802002010B5012184B0084601F01CFBE4
:1009580042F20F7442F2CF0301A900224FF0804007
:100968000193ADF80C20029401F032FB01221146EC
:100978004FF0804001F0FEFB01214FF0804001F074
:1009880071FB034B0093684601F092F804B010BD68
:100998001C01010100B5012183B0042001F0DCFA3B
:1009A8004FF40052012304486946CDE9002301F0C1
:1009B8001FFA03B05DF804FB00080240034B1868F7
:1009C80010B100221A600120704700BF2C020020DD
:1009D800034B186810B100221A600120704700BF4D
:1009E8002802002060B50546007D83B00E46F8B1A8
:1009F80008281FD1EA8A52BA92B2B2F5784F2CBFB2
:100A080002F6010202F5006292B252BA0023EA82AB
:100A180004222B7505F10C010DEB020000F090FB90
:100A280033462A464FF0FF3101A800F06BF880B238
:100A380003B060BD4FF0FF3003B060BDB5EEC00A33
:100A4800F1EE10FA70B505460E4604D52D2305F8CB
:100A5800013BB1EE400A10EE103AD915A1F17F0220
:100A68001E2A4CDC12F1170F19DA0024302305F87E
:100A7800013B2A462E23002E02F8013B2ADD0136CF
:100A8800354404EB8404E315303302F8013B640079
:100A9800AA4224F07F44F4D10020287070BDC3F32B
:100AA8001603162A43F4000318DD963903FA01F0F9
:100AB80000240A22294600F0E7FA2B78002BD8D028
:100AC80015F8013F002BFBD12A462E23002E02F8F1
:100AD800013BD4DC154600202870DFE7002A0ADB3A
:100AE800A1F17E04C2F1170203FA04F443FA02F0FA
:100AF80024F07F44DDE7D24343FA02F4B6E74FF02F
:100B0800FF3070BD70B51D46452313806BBA538006
:100B18000023144600299380D3804FF04003A8BFD8
:100B28005172137206460C49042204F10C0000F0BD
:100B380007FB0422314604F1100000F001FB0023FA
:100B480014216381204603F09DFF40BA6081294645
:100B58002046FFF7C3FD70BD4402002070B50B7836
:100B6800452B0C46154601462FD1E3885BBAC3F3E3
:100B78000D0353BB237A43B304F11006304603F048
:100B8800EFFFB8B10023668963811421204603F082
:100B980079FF73BA9BB2834217D1637A6681012BBE
:100BA8001BD0112B14D0104B1B6873B12046BDE825
:100BB800704018470D49304603F0EAFF0028E1D19C
:100BC800304604F011F80028DCD14FF0FF3070BD3A
:100BD8002046BDE8704001F029BD29462046BDE801
:100BE8007040FFF7FFBE00BF300200204002002027
:100BF8002DE9F04F0F46097887B00446904699B31F
:100C08003026252924D17B78302B00F0D580A3F11C
:100C18003002092A07F101074FF0200A40F2D58077
:100C28004FF0FF35583B202B1AD8DFE803F028197E
:100C38001919191919191919196E5E191919191982
:100C480019196919191919191982197E19192800F8
:100C5800002C00F0EC8023681970236801332360AE
:100C6800797801370029CCD12CB1236800221A7079
:100C7800236801332360002007B0BDE8F08F58F8DF
:100C880004BB1021BBF1000F38D18DF80860012298
:100C98000DF10809AB1A002B03F1FF350ADD002C12
:100CA80000F08580236883F800A02368013323605F
:100CB800013DF4D20BF101054D4406E0236819709B
:100CC8002368013323604D45CAD015F8011D002C57
:100CD800F4D10029F7D0002001F0D4FE4D45BFD053
:100CE80015F8011D0029EED0F5E758F804BBBBF153
:100CF800000F78DB0A21BBF1000FC6D05B467DE010
:100D080058F804BB01370A21BCE758F8041B002C2B
:100D180000F0898022681170236801332360797894
:100D2800013700297FF46DAF9EE758F804BB0A210C
:100D3800A8E758F8043B002B00F0828019780029B6
:100D480000F08880002D8BD0994674B12368197003
:100D580023680133236019F8011F6B1E69B1002B4A
:100D68003FF47EAF1D46002CF0D1204601F08AFEEC
:100D780019F8011F6B1E0029F1D1A5F10209002BFA
:100D88007FF76EAF74B1236883F800A0236801333E
:100D98002360B9F1000F09F1FF337FF761AF99467E
:100DA800002CF0D15146204601F06CFEF1E7514687
:100DB800204601F067FE7BE79A46BB78A3F1300234
:100DC800092A07F102073FF62BAF002505EB850539
:100DD80003EB450517F8013FA3F13002092AA5F1F5
:100DE8003005F3D91EE7CBF1000364B322682D2147
:100DF8001170226801322260013D0A210DF10809B3
:100E0800DFF85CE0CC4600221846B3FBF1F301FBA7
:100E1800130B88421EF80BB00CF801BB934602F185
:100E28000102F1D236E711F0FF013FF419AF204675
:100E380001F028FE7978013700297FF4E2AE13E744
:100E4800064B3C217EE72D212046019301F01AFE36
:100E5800019BD1E705F1FF392B4690E76C4C000860
:100E6800744C0008421E11F8013B02F8013F002BA8
:100E7800F9D1704770B5161E19DD751E4B1E4C1939
:100E8800844601E0A34212D09E4613F8012F0CF8C5
:100E9800012B002AF6D1C1F1010171444B1C9E427D
:100EA80005DD6B1A63440CF8012B6345FBD170BD5B
:100EB80010B40246134612F8014B002CFAD1013B3C
:100EC80011F8012B03F8012F002AF9D15DF8044B22
:100ED800704700BF431E00E030B113F8010F11F84E
:100EE800012B9042F8D0801A704700BF30B50C78BB
:100EF8000D460178A1420FD184462A46234653B1B4
:100F080012F8013F1CF801EF9E45F8D01BB10130E3
:100F18000029EED1084630BD2346F7E7034613F80B
:100F2800010B28B1002013F8012B0130002AFAD157
:100F3800704700BFC9B2034600E032B11A788A424E
:100F4800184603F10103F8D170471046704700BFF7
:100F580070B4164E00B305460A4615F8014B01E079
:100F68009C4215D012F8013B002BF9D1D4B115F8E9
:100F7800014B0A4601E0002BF9D012F8013B9C42D4
:100F8800F9D13CB1002305F8013C356070BC7047CD
:100F98002846E0E72546F8E730680028DBD100203E
:100FA80070BC704734600020FAE700BF34020020AC
:100FB800F0B5034600782D2803BF58780127DB19C0
:100FC8000027302804D15878782804BF023310222B
:100FD80003F10905002005E0ACF1370EAB4200FB38
:100FE80002E016D01E4613F801CBACF1300EBEF16C
:100FF800090FACF14104F1D9192CACF1610EEBD910
:10100800BEF1190F05D8ACF1570EAB4200FB02E058
:10101800E8D101B10E6007B14042F0BD10B403E061
:10102800092B01D0202B2BD1024610F8013B2B2B8A
:101038000AD0F5D92D2B09D15378A3F13002092A0A
:101048001ED80246012407E053780246A3F1300176
:10105800092998BF002413D8002000EB800003EB77
:10106800400112F8013FA3F1300CBCF1090FA1F1C6
:101078003000F2D90CB1C1F130005DF8044B704773
:1010880000205DF8044B7047102A10B52DD00028B9
:101098001ADB8C4690FBF2F402FB140E0EF1300EB4
:1010A800634620460CF801EB002CF3D1002299424C
:1010B8008CF8002007D80A78187801F8010B03F893
:1010C80001298B42F7D210BD2D2301F8013B8C4634
:1010D80090FBF2FE02FB1E04C4F130047046634626
:1010E8000CF8014B0028F3D1E0E702460C4602F069
:1010F8000F0E0EF1300E0F2A23464FEA121204F893
:1011080001EBF4D80F2815D900228B422270DAD3CC
:1011180011F8012B1878392A84BF2732D2B239281E
:1011280084BF2730C0B201F8010C03F801299942A5
:10113800EED910BD9A1C3023237023461446E3E7EA
:101148003AB1431E0A4411F801CB03F801CF91428A
:10115800F9D1704712B90EE0013A0CD00B7890F82B
:1011680000C09C4500F1010001F10101F4D004D256
:101178004FF0FF307047104670470120704700BF9E
:1011880032B1C9B20244034603F8011B9342FBD1B2
:10119800704700BF014B1860704700BF0400002073
:1011A8000EB400B584B005AA019052F8041B03924E
:1011B80001A8FFF71DFD04B05DF804EB03B070470C
:1011C80008B50648FFF708FB024608B9002008BD25
:1011D80002490348FFF7C2FC002008BD5602002060
:1011E8004402002070B5202182B00546FFF7A2FE18
:1011F800044618B1461B731E022B01D902B070BDFC
:10120800324629466846FFF79BFF06F108030DEBB7
:10121800030634490023684606F8083CFFF75AFEDF
:1012280018BB6378202B04F1010403D114F8013FA3
:10123800202BFBD0002BE1D00A2201A92046FFF782
:10124800B7FE019BA342054602D1D7E701330193BC
:101258001A78202AFAD0002AD0D122496846FFF706
:1012680039FE78B9204B1D60C8E720496846FFF76A
:1012780031FE0028D5D01E496846FFF72BFE00280E
:10128800CFD0BBE719496846FFF724FE194B08B9C8
:101298001D60B3E71B68013303D0134B1B68013390
:1012A800ACD1642D2846A8BF642020EAE07007EE80
:1012B800900A9FED116ADFED116A114AF8EEE77A9C
:1012C80087EE867A67EE267AFDEEE77A17EE903A91
:1012D800B3F57A7FA8BF4FF47A7323EAE3731364F4
:1012E8008CE700BF884C0008140000208C4C0008D4
:1012F800904C0008100000200000C84200007A440A
:10130800000800402DE9F0410E4682B02021044635
:10131800FFF710FE054600286CD0A0EB040808F182
:10132800FF33022B02D902B0BDE8F0816F46214697
:1013380042463846FFF704FF08F108030DEB03089F
:10134800002308F8083C6B786C1C43B13949093B09
:10135800DBB2172B21FA03F201D8D2070ED4364993
:101368003846FFF7B7FD98B900F18040318800F59D
:10137800013000F08FFD02B0BDE8F08114F8013FA4
:10138800002BE4D12C493846FFF7A4FD0028EBD008
:101398002A493846FFF79EFD48B900F18040318858
:1013A80000F5013000F074FD02B0BDE8F081244979
:1013B8003846FFF78FFD68BB002CB4D00A2201A97C
:1013C8002046FFF7F5FD019AA2420546ABD01378F7
:1013D8003BB3184C03E00132019213780BB3093B7D
:1013E800DBB2172B24FA03F19DD8CB07F3D402B054
:1013F800BDE8F0812046FFF791FD0138022892D818
:101408006F46214603223846FFF734FD2C468DF8F7
:101418000350A4E70B493846FFF75CFD0028CBD002
:1014280081E707493846FFF755FD08B975807AE71F
:10143800B58078E713008000944C0008984C0008A9
:10144800884C00088C4C0008C28A4DF675039A42F5
:1014580010B501D0002010BD038B00F11C045BBA4D
:1014680014FA83F300221E4803F8082C4FF40051A5
:1014780000F014FD1B492046FFF738FD40B11A491A
:101488002046FFF733FD0130FFF7ACFE002010BD0A
:1014980016492046FFF72AFD68B111484FF400515C
:1014A80000F0FCFC10492046FFF720FD10490130F0
:1014B800FFF728FFCEE70F492046FFF717FD002862
:1014C800C8D007484FF4005100F0E8FC0649204610
:1014D800FFF70CFD08490130FFF714FFBAE700BF1A
:1014E800000802409C4C0008AC4C0008B04C0008B6
:1014F80020000020C04C00081800002070B5194ECC
:10150800194BC4B0044630460D460393FEF770FEEF
:10151800B6F812C0154BA3FB0C13D90801EB8101D7
:10152800ACEB410C1FFA8CF12A46DB08009104A8A9
:101538000F49FFF735FE04A904F11C00FFF792FCE0
:1015480004A8FFF7EBFC00F1080292B200922346D0
:1015580042F2B82247F2D85103A801F03BF844B050
:1015680070BD00BF28000020AC1F45FECDCCCCCC00
:10157800D04C000870B5194E194BC4B0044630461B
:101588000D460393FEF734FEB6F814C0154BA3FBC3
:101598000C13D90801EB8101ACEB410C1FFA8CF15B
:1015A8002A46DB08009104A80F49FFF7F9FD04A9B2
:1015B80004F11C00FFF756FC04A8FFF7AFFC00F18C
:1015C800080292B20092234642F2B82247F2D8515A
:1015D80003A800F0FFFF44B070BD00BF2800002042
:1015E800AC1F45FECDCCCCCCF04C000810B5FFF7B5
:1015F800EFF908B9002010BD19491A481A4CFFF72D
:101608007DFF1A491748FFF7B5FF2046FEF7F0FDA2
:10161800174B628A5988914202D89988914219D207
:101628001988144800F034FC0F48FEF7E1FD124B0E
:10163800628A5988914202D89988914205D21988BC
:101648000C4800F025FC002010BD1988094800F05E
:1016580021FCCFE71988074800F01CFCE4E700BF2D
:10166800144D00085602002028000020244D0008D0
:101678002000002000040240180000201C4B1A68BB
:101688001C4B07EE902A1B68B8EEE77A07EE903AF3
:10169800B4EE407AF1EE10FAF8EEE77AC8BFB0EE91
:1016A800470AF4EEC07AF1EE10FA58BFF0EE407A2D
:1016B8009B1A77EEC76A07EE903AB8EEE77AF7EE2C
:1016C800007A86EE876A0C4A9FED0C7A77EEC67A26
:1016D80067EE877AFDEEE77A17EE903AB3F57A7FF0
:1016E800A8BF4FF47A7323EAE3731364704700BF0B
:1016F80014000020100000200008004000007A4478
:1017080030B52DED028BCDB0254B039304460D4625
:101718004FF4807200210CA8B0EE408AFFF730FD2C
:101728001E22002104A8FFF72BFD1E4BD3ED007AE3
:101738001D4BF8EEE77A93ED000AF4EEC87AF1EE65
:1017480010FAB8EEC00AD8BFF0EE487AB4EEE70A4D
:10175800F1EE10FA58BFB0EE670A012104A8FFF7AE
:101768006DF904AB2A4611490CA8FFF719FD0CA91D
:1017780004F11C00FFF776FB0CA8FFF7CFFB00F184
:10178800080292B20092234642F2B82247F2D85198
:1017980003A800F01FFF4DB0BDEC028B30BD00BFA9
:1017A800AC1F45FE1400002010000020384D000832
:1017B80010B508202DED068BFEF74CFE9FED238A11
:1017C800DFED23AA9FED23AADFED239A9FED239A4D
:1017D800DFED238A4FF48064FEF744FE07EE900A9B
:1017E800F8EEE77A013C67EEAA7A3AEE677A27EED6
:1017F800297AC7EE276A86EE897AC8EE877A38EEA4
:10180800278AE9D1DFED177A174C28EE278A84ED6D
:10181800008AFFF7D3F818B9BDEC068B002010BD7D
:1018280094ED000A11491248FFF76AFF114B1B6833
:101838000133F1D0104B1B680133EDD094ED000A51
:10184800FFF71CFFBDEC068B002010BD0000000058
:10185800E54C4E3F00404E4500401C460080224467
:101868000000FA430000803A38020020484D000882
:1018780056020020140000201000002030B5C5B02A
:10188800104B039304460D4604A80F49FFF7EAFAE4
:10189800294604A8FFF70CFB04A904F11C00FFF774
:1018A800E1FA04A8FFF73AFB00F1080292B20092AD
:1018B800234642F2B82247F2D85103A800F08AFE24
:1018C80045B030BDAC1F45FE584D000838B505463B
:1018D80064242846013CFEF77FFFA4B2642000F090
:1018E800DDF9002CF5D10B492846FFF7C7FFFA2090
:1018F80000F0D4F92846FEF76FFF28460549FFF7A0
:10190800BDFFFA2000F0CAF92846BDE83840FEF7C6
:1019180063BF00BF6C4D000830B5ADF2447D4FF495
:10192800E662002104A8FFF72BFCFFF733F8FEF767
:101938005DFDFEF771FD00F0F3F8FFF703F800F026
:1019480097FD3549354803F063F93349344803F0C6
:101958005FF93449344803F05BF93449344803F0FB
:1019680057F93448FFF7B2FF334800F097FE334980
:101978003048FFF783FF32492E48FFF77FFF314990
:101988002C48FFF77BFF30492A48FFF777FF2F499C
:101998002848FFF773FF2E492648FFF76FFF04A872
:1019A800FEF752FE2B49322204A8FEF757FE2A49B9
:1019B800322204A8FEF752FE2849322204A8FEF774
:1019C8004DFE022280201146254B00902548FEF747
:1019D800E5FC0121022000F0BFFA4024204801253F
:1019E80002A9CDE9024500F003FA21461C4800F09F
:1019F8004FFA20241A4802A9CDE9024500F0F8F967
:101A08001748214600F044FA7B20FFF7C3FB04A8DF
:101A1800FEF742FEFBE700BF604D00080A00002009
:101A280044020020704D000840020020804D00084C
:101A38003C0200205602002051140008484D0008BE
:101A4800144D0008244D00089C4C0008B04C0008B8
:101A5800C04C0008C9110008F5150008B91700089E
:101A68000004024028000020A1F1080C033121F0F5
:101A7800030100EB0C03103910B4C0E90031054C28
:101A88000549002240F80C2020605A605DF8044B9C
:101A980008607047A00400209C040020034B40F01D
:101AA800BF6040F40030D860704700BF00ED00E030
:101AB800C37823B3184B4178DA688378D243C2F3EA
:101AC8000222C2F1040C5FFA8CFC01FA0CF14FF00F
:101AD8000F0C4CFA02FCC9B20278104803EA0C0356
:101AE8000B4300EB020C1B01DBB251098CF80033ED
:101AF80002F01F020123934040F821307047037819
:101B080006485A09012103F01F03203201FA03F3A2
:101B180040F82230704700BF00ED00E000E100E02F
:101B2800F0B5294C294D8BB00121042000F02CFA86
:101B38000027274B029302A9204640F2E73203927E
:101B4800ADF8107000F044FA01221146204600F06A
:101B580011FB2046012100F085FA0121022000F046
:101B6800FBF928460222082100F09CF928460222A7
:101B7800092100F097F94FF440726946284640F26F
:101B88000233CDE90023022600F032F940F2F315C2
:101B9800104B059305A92046ADF82470ADF82060D8
:101BA800079500F06BFA2046082100F0D1FA05A944
:101BB8002046ADF82060079500F09AFA08212046E3
:101BC80000F0CEFA0BB0F0BD00080040000402405F
:101BD8004703200070000100704700BF10B4054C97
:101BE800D4E90023501C43F10001C4E900015DF869
:101BF800044B7047A80400201E4B1F4A934210B59F
:101C08000CD2013AD21A22F0030204321B491A44B8
:101C180051F8040B43F8040B9342F9D1184B194AB5
:101C280093420AD2013AD21A22F0030204321A4429
:101C3800002143F8041B9342FBD100F065FB00F040
:101C4800DFFB114B11491B68A1FB03134FF0E02286
:101C58009B090F49013B5361F0200723002481F8B9
:101C6800230094610B490C481361FFF7FDFEFFF751
:101C780053FEFEE70000002074010020F04D00082C
:101C8800780100200C19002060000020D34D62105C
:101C980000ED00E0F4C600000C19002008492DE909
:101CA8003008D1E90045D1E900BCBBEB04026CEB7C
:101CB8000503824273F10003F5D3BDE8300870478D
:101CC800A804002072B6704762B6BFF36F8F7047E2
:101CD80043680A6810B423F040730C7923F48073C6
:101CE80043EA042313434360D1E9032313438A6877
:101CF800846891F805C01343084A2240134343EA15
:101D08004C0383600A7DC36A5DF8044B013A23F4EF
:101D18007003D2B243EA0253C3627047FDF7FFC0B3
:101D2800836819B143F001038360704723F001030E
:101D380083607047092910B52ED9A1F10A0CC4682F
:101D48000CEB4C0C4FF0070E03FA0CF30EFA0CFCDC
:101D580024EA0C042343C360062A0ED8013A436BD5
:101D680002EB82024FF01F0C0CFA02FC23EA0C0370
:101D780001FA02F21A43426310BD0C2A1BD8073A33
:101D8800036B02EB82021F24944023EA040301FA46
:101D980002F21A43026310BD046901EB410E4FF0D1
:101DA800070C0CFA0EFC03FA0EF324EA0C0C43EAB7
:101DB8000C030361D0E70D3AC36A02EB82021F24C9
:101DC800944023EA040391401943C16210BD00BF47
:101DD800836843F080438360704700BFC06C80B263
:101DE800704700BF0368194214BF012000207047E4
:101DF80000222DE9F04713460D684FF0010E032627
:101E080004E00133102B02F1020239D00EFA03FC70
:101E18003CEA0504F5D1076806FA02F427EA040744
:101E280007600F79D0F800A007FA02F9013F49EAE4
:101E38000A09012FA046C0F800906FEA040411D8DF
:101E480087683C4084604C79876894403C43846050
:101E5800446824EA0C0444608C7947689C40A4B226
:101E68003C434460C46824EA0804C460CC79C76869
:101E7800944001333C43102BC46002F10202C5D1E7
:101E8800BDE8F0870369194214BF0120002070479C
:101E98008161704709048161704700BF43695940F7
:101EA80041617047CB0800EB830001F00701036A2A
:101EB80089004FF00F0C0CFA01FC23EA0C030362B3
:101EC800036A8A401A430262704700BF1E4A936839
:101ED80003F00C03042B10B41BD0082B1BD01B4B96
:101EE800194A036094681A49C4F303140C5DE3406B
:101EF80043609468C4F382240C5D23FA04F484607C
:101F080092685DF8044BC2F342328A5CD340C360E6
:101F18007047104BE4E75368516813F4800F536817
:101F280014BF0C4A094AC3F3881301F03F01B2FBFE
:101F3800F1F202FB03F3044A5268C2F30142013290
:101F48005200B3FBF2F3CBE7003802400024F40060
:101F58004000002040787D01044A136B11B103430F
:101F68001363704723EA0003136370470038024085
:101F7800044A536B11B103435363704723EA0003C8
:101F88005363704700380240044A136C11B103438D
:101F98001364704723EA0003136470470038024053
:101FA800044A536C11B103435364704723EA000396
:101FB8005364704700380240044A136A11B103435E
:101FC8001362704723EA0003136270470038024027
:101FD80010B41F4C0268A04293B229D0B0F1804FD0
:101FE80016D0A4F57C44A04212D004F58064A04227
:101FF8000ED004F58064A0420AD04C680B8892B2D7
:102008000260C462836201235DF8044B4361704738
:10201800B1F802C04C680A8823F0700343EA0C0345
:1020280003600123C46282625DF8044B4361704718
:102038004A885DF8044B23F07003134303604A6831
:102048000B88C26283628B7A036301234361704702
:102058000000014000234FF0FF324260038103601B
:1020680083727047036819B143F001030360704736
:102078004FF6FE7213400360704700BF036A4FF6C5
:10208800FF62134003628A894B8870B4056A44680A
:10209800C6691A434FF6FF532B4043EA02230D88C3
:1020A8004FF68C7232402A43104DA842A4B29BB21C
:1020B80006D089684460C26170BCC163036270471E
:1020C800CD894E8A23F4006343EA05230D8A24F45C
:1020D8004054354344EA05148E884FF6FF351D40B9
:1020E80045EA0625A4B2ABB2E3E700BF0000014011
:1020F800036AB1F80CC04EF6FF72134003624B88B6
:102108000A8870B4056A4468C6694CEA030C48F644
:10211800FF43334043EA02239AB24DF6FF732B4044
:102128000A4D43EA0C33A842A4B29BB206D0896890
:102138004460C26170BC0164036270470D8A24F474
:10214800804444EA8514A4B2F1E700BF00000140CE
:10215800C2694FF6F77313400B43C361704700BF62
:10216800C2694FF2FF73134043EA01239BB2C36174
:10217800704700BFC36812B11943C1607047C943B3
:1021880089B21940C16070470369C26811EA030047
:1021980003D0114214BF012000207047C94389B2FF
:1021A800016170470269CB8822F4405213439BB205
:1021B80030B58A89036104468B8808890D46034334
:1021C800E168688921F4B051034321F00C019BB206
:1021D8000B439BB2E360636923F4407313439BB2E0
:1021E80085B063616846FFF771FE1C4B9C4205D0C1
:1021F80003F580639C4201D0029B00E0039BE268E8
:10220800174812F4004F2A68E56803EB830314BFEC
:102218005200920003EB8303B3FBF2F3A0FB03210C
:1022280049094FF0640C0A010CFB113329040AD543
:10223800DB003233A0FB0303C3F3421313439BB207
:10224800A36005B030BD1B013233A0FB0303C3F309
:10225800431313439BB2A36005B030BD0010014087
:102268001F85EB51C36819B143F40053C36070472D
:102278004DF6FF721340C360704700BFC1F30801F9
:10228800416070474068C0F30800704701F01F0CB8
:10229800C1F342110123012903FA0CF30DD00229DD
:1022A8000CBF103014301AB1026813430360704732
:1022B800026822EA0303036070470C30F3E700BFAB
:1022C8000368194214BF012000207047C1F342126D
:1022D80001F01F0C0123012A03FA0CF310D0022A83
:1022E8000CBF02694269134002683BB1090A012325
:1022F8008B40134214BF01200020704718467047D6
:10230800C2681340F0E700BF3848394AD0F888302F
:1023180043F47003C0F888301368002143F00103C8
:10232800136091601368A0F1BC2023F0847323F438
:102338008033F03813605060136882B023F4802330
:102348001360D16000910191136843F480331360E6
:1023580003E0009BB3F5A04F09D0136803F40033E2
:102368000193009B01330093019B002BF1D0204B7C
:102378001B6813F4003318BF01230193019B012B41
:1023880005D01A4B4FF000629A6002B07047184BA4
:1023980018491A6C184842F080521A640A6842F4C4
:1023A80040420A609A689A609A689A609A6842F409
:1023B80080529A6058601A6842F080721A601A68EF
:1023C8009201FCD50D4A40F203611160996821F031
:1023D80003019960996841F00201A2F58062996051
:1023E800936803F00C03082BFAD1CAE700ED00E06C
:1023F800003802400070004019604108003C02406B
:10240800164A936803F00C03042B0CD0082B0CD04D
:10241800134B124A134892681349C2F30312825CA1
:10242800D3400B607047114BF3E75368516813F4BE
:10243800800F536814BF0D4A094AC3F3881301F08B
:102448003F01B2FBF1F202FB03F3044A5268C2F304
:10245800014201325200B3FBF2F3DAE700380240DE
:102468000024F400500000206000002040787D0126
:1024780008B500224FF4E131104600F0A9F9002018
:1024880008BD00BF70B50D4604467E21002000F04F
:10249800F9FA05B304F25226254407E0194600204C
:1024A80000F0F0FAAC4216D0B44214D014F8013B54
:1024B800A3F17D02012A4FF07D014FF00000EDD815
:1024C80000F0E0FA14F8011C002081F0200100F06F
:1024D800D9FAAC42E8D1BDE870407E21002000F076
:1024E800D1BA00BFF8B50646002000F091FA08B945
:1024F8000020F8BD002000F00DFB7E28044606D120
:102508000FE07E2C08D0002000F004FB04460020D9
:1025180000F07EFA0028F4D1002000F079FA0028B3
:10252800E6D0013E002440F2522705E00134A4B26F
:10253800BC4206F8013F28D0002000F069FA0546A1
:102548000A2035B9FFF7AAFB284600F061FA0028EF
:10255800CED0002000F0DEFA7E28034615D07D2874
:10256800E4D1002000F054FA05460A2035B9FFF7F7
:1025780095FB284600F04CFA0028B9D0002000F05E
:10258800C9FA80F02003DBB2D0E72046F8BD00BFCF
:1025980000B50C3001F1110C01F1060E002330F8E2
:1025A800022B02339BB252BA73451CFA82FCF6DD49
:1025B800CB0704D503885BBA03F47F439C441FFA16
:1025C8008CF000EB1C4000EB1040C04380B25DF87B
:1025D80004FB00BF70B5BDF810601C4649BA99826B
:1025E80073BA238352BA002363830546E2820E49F5
:1025F800042204F10C00FEF7A3FD0422294604F18D
:102608001000FEF79DFD31462046FFF7C1FF06F199
:10261800140340BA6083224628469BB2BDE8704046
:102628001121FEF76FBA00BF4402002070B5058B78
:10263800468B6DBA84B00446ADB206BBE38AA68A5F
:10264800B3F5E06F0AD0B3F5106F15D0124B1B68C5
:10265800F3B1204604B0BDE870401847042204F1E5
:102668000C0103A8FEF76CFD72BA0095234692B2DE
:10267800072103A8FFF7AEFF284604B070BD00236A
:1026880043832946FFF784FF76BAB6B28642D5D08F
:102698004FF0FF30F1E700BFB0040020014B186095
:1026A800704700BFB004002038B5154D154C1448CC
:1026B80040F22551FFF70AFE03462846FBB1FFF713
:1026C800E1FDB4F88230B4F88020013303F07F03D1
:1026D80092B29342C0B20CD0B4F8822092B2A05405
:1026E800A4F88230B4F8843001339BB2A4F8843063
:1026F800DDE7D4F888300133C4F88830D7E738BD2F
:1027080000100140B804002038B5164D164C154885
:1027180040F22551FFF7DAFD034628460BB3FFF7D1
:10272800B1FDB4F81231B4F81021013303F07F037E
:1027380092B29342C0B20ED0B4F8122114FA82F2C7
:1027480082F89000A4F81231B4F8143101339BB226
:10275800A4F81431DBE7D4F818310133C4F8183180
:10276800D5E738BD00440040B804002038B5164D00
:10277800164C154840F22551FFF7A8FD0346284698
:102788000BB3FFF77FFDB4F8A231B4F8A0210133F1
:1027980003F07F0392B29342C0B20ED0B4F8A221E4
:1027A80014FA82F282F82001A4F8A231B4F8A43114
:1027B80001339BB2A4F8A431DBE7D4F8A831013384
:1027C800C4F8A831D5E738BD00140140B80400208A
:1027D80030B50D468BB01446062805D8DFE800F062
:1027E80096693A04040408004FF0FF300BB030BD7E
:1027F80001210846FFF7B0FB01212020FFF7D0FB9D
:10280800724808220B21FFF74DFB704808220C2163
:10281800FFF748FB6E4B6F484FF4C05204A9CDE94F
:102828000423FFF7E5FA00234FF440226A4806958F
:1028380006A9CDE90732ADF82430FFF7B3FC002C28
:1028480000F0B18064480121FFF70CFD634B83F869
:102858008C407FE001210846FFF77EFB01214FF401
:102868000030FFF791FB594807220221FFF71AFBB6
:10287800564807220321FFF715FB554B53480C22F6
:1028880004A9CDE90423FFF7B3FA00234FF440224B
:102898005348069506A9CDE90732ADF82430FFF76D
:1028A80081FC002C6CD04E480121FFF7DBFC4D4B1E
:1028B800CDE701210220FFF74FFB01211020FFF790
:1028C8006FFB494807220621FFF7ECFA0722114659
:1028D8004548FFF7E7FA3E4B4348C02204A9CDE933
:1028E8000423FFF785FA00234FF440223F4806955A
:1028F80006A9CDE90732ADF82430FFF753FC64B3DD
:102908003A480121FFF7AEFC394BA0E70121084600
:10291800FFF722FB4FF400442C48012504A9CDE918
:102928000445FFF765FA21462848FFF7B3FA642003
:10293800FFF7B4F921462548FFF7AAFA4FF4FA70D1
:10294800FFF7ACF92B4900912B4B2C4A2C48294610
:1029580001F02AFD00200BB030BD2448012240F2CE
:102968002551FFF793FC274B039303A8FFF7A0F823
:102978001F4BA3F88040A3F88240A3F88440BFE728
:102988001748012240F22551FFF780FC1E4B0393A4
:1029980003A8FFF78DF8164BA3F81041A3F81241CE
:1029A800A3F814417FE70C48012240F22551FFF7B4
:1029B8006DFC164B039303A8FFF77AF80C4BA3F8AA
:1029C800A041A3F8A241A3F8A4413BE700000240BC
:1029D800020200010008024000140140D80500204E
:1029E8000044004048050020000402400010014057
:1029F800B804002058010020640000203C01002099
:102A0800680600202500000126000001470000019B
:102A180008B5062805D8DFE800F0251F12040404CD
:102A28000600002008BD11482021FFF749FC104B83
:102A380093F88C2062B1003818BF012008BD0D48FA
:102A48002021FFF73DFC0C4B93F88C20002AF2D193
:102A5800B3F8840080B208BD08482021FFF730FC95
:102A6800074BE5E701F062FB08BD00BF0014014019
:102A7800D80500200044004048050020001001400F
:102A8800B804002010B50C46062833D8DFE800F05B
:102A980028041C32323210001A488021FFF710FC3B
:102AA8000028F9D021461748BDE81040FFF7E6BBDB
:102AB80015488021FFF704FC0028F9D02146124868
:102AC800BDE81040FFF7DABB10488021FFF7F8FB9C
:102AD8000028F9D021460D48BDE81040FFF7CEBBCD
:102AE800084601F011FB0A4A1368642B03F101013F
:102AF80001D0116010BD0023BDE81040052013600F
:102B0800FFF7CCB800100140001401400044004019
:102B1800B404002030B583B006280FD8DFE800F0F1
:102B2800046A3E0E0E0E11000DF1070001F00AFBBB
:102B38000028F9D09DF8070003B030BD002003B08D
:102B480030BD554C94F8AC51002D40F08180B4F85C
:102B5800A021B4F8A23192B29BB29A42F7D0FFF703
:102B6800B1F8B4F8A021B4F8A23192B29BB29A425B
:102B780069D0B4F8A03114FA83F393F82051B4F86B
:102B8800A031013303F07F03A4F8A031B4F8A431D5
:102B9800013B9BB2EDB2A4F8A43154E03E4C94F84A
:102BA8001C51002D6CD1B4F81021B4F8123192B236
:102BB8009BB29A42F7D0FFF785F8B4F81021B4F821
:102BC800123192B29BB29A423DD0B4F8103114FA45
:102BD80083F393F89050B4F81031013303F07F0376
:102BE800A4F81031B4F81431013B9BB2EDB2A4F84B
:102BF800143128E0284C94F88C50002D34D1B4F8C6
:102C08008020B4F8823092B29BB29A42F7D0FFF794
:102C180059F8B4F88020B4F8823092B29BB29A4244
:102C280011D0B4F880309BB2E55CB4F88030013341
:102C380003F07F03A4F88030B4F88430013B9BB2E2
:102C4800EDB2A4F884308DF80750FFF73DF871E72E
:102C5800124C20212046FFF733FB0028F9D00F48FB
:102C6800FFF710FBC0B267E70D4C20212046FFF7A5
:102C780027FB0028F9D00A48FFF704FBC0B25BE73E
:102C8800084C20212046FFF71BFB0028F9D00548F7
:102C9800FFF7F8FAC0B24FE7B8040020001401406B
:102CA800001001400044004030B50121204C83B0A1
:102CB8000846FFF751F940F20223694620464FF4CF
:102CC800D852CDE90023FFF793F820460A220821BD
:102CD800FFF7E8F820460A220921FFF7E3F8204623
:102CE8000A220B21FFF7DEF80A2220460C21FFF703
:102CF800D9F84FF4806301256946204600934FF4C4
:102D08008173ADF805308DF80750FFF771F80A2286
:102D180011462046FFF7C6F829468020FFF728F914
:102D280029464FF08050FFF747F903B030BD00BF88
:102D38000000024000B54FF4C06083B0FEF7AEFE5D
:102D4800034B019301A8FEF7B3FE03B05DF804FB43
:102D580043010301704700BF704700BF014800F0FE
:102D680085BD00BF6806002030B583B00023124C33
:102D7800019305460320FFF7EDFFEB68013C1A6954
:102D8800019216D0019A002AF4DA01990A4A41F010
:102D9800010101910199196119690191013A02D062
:102DA8000199C907F8D4032003B0BDE83040FFF704
:102DB800D1BF03B030BD00BF410D030030B4C478AB
:102DC8006CB900EB820003339A10D0F8D05006D0CB
:102DD8002346013351F8040B28609A42F9D10020A8
:102DE80030BC704710B502F1030E5FEAAE0ED0F8A2
:102DF800D0400AD08C460023013322684CF8042BBB
:102E08009E45F9D101EB8E0010BD084610BD00BFEC
:102E18000122402391422DE9F0414280838057D01E
:102E2800002941D04378067800224FF40061C0E9B8
:102E38000321002B61D09E464FF460654FF48867EC
:102E48004FF4806802F5106300F1140C00214CF86F
:102E5800043F013103F500747145CCF83C4003F19F
:102E68002003F4D3C0F81480C0F8CC70BEB100F1D0
:102E78008C0302F5A061B40003EB860C43F8041F31
:102E88009C4501F12001F9D100F1CC0302F58052F3
:102E9800191943F8042F994202F58052F9D1C0F864
:102EA8000C510020BDE8F0814FF4A063C380174B9C
:102EB800C17240F20C62164D164FDFF86C8016494D
:102EC80002804FF0060E0C261A46C0E90331B9E716
:102ED80002234FF4A0724FF4816403724FF0A043B1
:102EE800C172C2800D4D0E4FDFF840800D4904803D
:102EF8004FF0040E08261A46E7E74FF460654FF4D2
:102F080088671A464FF48068ACE700BF00000440A9
:102F1800000E04404004044000080440000E005025
:102F28004004005000080050000404400004005011
:102F380038B5037AC268012B04464FF000051AD150
:102F4800956B417A6FF3104591B163F3145595630E
:102F5800D36823F4940323F0D80343F01003D36019
:102F68002046FFF701FFE378012B2CD0002038BD65
:102F7800C5F30053E9E7D36843F04003D360FFF794
:102F8800F3FE237A627AE168A3F10303B3FA83F3C9
:102F98005B09003A4FEA430318BF012243F00D03CF
:102FA80043EA021363F317458D631420FFF7D4FE39
:102FB800217AE2680329D36812D0D360E378012B21
:102FC800D4D1E16802E0E1682A238B608B6823F0A2
:102FD8003E0242F02A0262F307038B60002038BDEC
:102FE80043F48033D360156B0A4B03EA154343F46B
:102FF800A15343F00D0363F31F451563C820FFF782
:10300800ABFEE36845F400051D63C820FFF7A4FE86
:10301800D4E700BF00E3FFFF03460020DA689368A7
:1030280043F001039360704703460020DA68936811
:1030380023F001039360704700B583B00023019328
:10304800019B43F020030193019B61F38A130193D1
:10305800C168019A074B0A610A690192013B02D0D3
:10306800019A9206F8D40320FFF774FE002003B0FB
:103078005DF804FB410D030010B5C468E368C3F3B1
:10308800076222F06002012962F31F6308D009B9C0
:1030980043F080433220E360FFF75EFE002010BD5E
:1030A80043F00053F6E700BFC3685869C04300F017
:1030B80001007047C36858699B691840704700BF92
:1030C80010B4C3680B4C4FF0FF31024600209861E2
:1030D8005961596059619C61D178074A9C69B1FA74
:1030E80081F1490942EA011222439A615DF8044BD1
:1030F800704700BF000800800C383C40D0F80C3105
:1031080002690021F0B51960136861F3CC231360DC
:10311800C37A012B83B004466CD0C16800230193A5
:10312800019B43F020030193019A3D4B102060F36B
:103138008A120192019A0A610A690192013B02D03E
:10314800019A9006F8D40320FFF704FE00230093A9
:10315800009BE16843F010030093009A304B0A612A
:103168000A690092013B02D0009AD206F8D40320E3
:10317800FFF7F0FD266900254FF0FF3335617561D3
:10318800B361F561607830B304F114024FEA800C42
:10319800FF2702EB800052F8043F19680029B4BFEA
:1031A8004FF090410021824219601D619F60F2D169
:1031B80004F1500202EB0C000027FF2552F8043FEF
:1031C80019680029B4BF4FF090410021904219605E
:1031D8001F619D60F2D1336943F480733361E378F2
:1031E800012B01D10F4B33632046FFF769FF002005
:1031F80003B0F0BD1368C16843F003038020136077
:103208004862094B094A00F500108862C1F8043188
:103218004FF4A073C1F80821C1F80C317EE700BF54
:10322800410D030003018100A0008000200120005F
:1032380003699868C0F3410002281DBF20F002000E
:10324800C0F10300C0B20120704700BF0369816963
:103258009A680868C2F34102022A0CBF03220022BE
:1032680062F30A0008605A6842F4807200205A60CB
:10327800704700BF30B44B78012B4FF0000227D0C5
:103288000D7800EB85035C6D0123AB4063F31F42AF
:1032980025682B0415D48B6891F803C0C988C3F33B
:1032A8000A0343F0805343F400430CF0030C01F08D
:1032B8000F0143EA8C4343EA8153094929400B43F0
:1032C80023600369D9690A43002030BCDA6170477A
:1032D8000C78A34000EB840463F30F02A469D7E7DA
:1032E800007833EC4B780A78012B4FF0000C0ED0A5
:1032F80000EB820101239340496D63F31F4C02697F
:1033080000200860D36923EA0C03D361704700EBFF
:1033180082019340896963F30F0CF0E72DE9F043CC
:103328004B78012B30D00B7800EB83035D6D4B6934
:103338002C682E691BB38F683B44013BB3FBF7F342
:10334800C3F3090207FB02F2C3F30903C2F3120233
:1033580042EAC34262F31C062E61C378012B04BF04
:103368000B696B61CB78012B6BD0C4F3076363F0F7
:103378007B0363F31F642C600020BDE8F0838A6838
:103388000123C2F31202E3E791F800E04D6900EB74
:103398008E0CDCF818703C683A6902F060424DB354
:1033A800D1F80890344E05EB090808F1FF38B8FB4E
:1033B800F9F806EAC846C5F3120846EA080691F87D
:1033C80003803243B8F1010F164648D03A61C278FB
:1033D800012A4DD00269516B03FA0EF30B43536374
:1033E800C4F3076363F07B0363F31F643C6000204E
:1033F800BDE8F08342F40022CE783A61C378012B0D
:1034080027D0012EECD10269926812F4807FC4F3B0
:1034180007620CBF62F05B0262F06B0262F31F642A
:103428003C60002BA8D1A8B203308010DCF8D04053
:10343800A2D0CA6852F8041B216001339842F9D11E
:103448009AE74B7913B144F000548EE744F0805466
:103458008BE70B697B61012EC2D10123D3E768F3A7
:103468005E763E61C378012BCDD10B697B61F4E7B1
:103478000B697B61B4E700BF0000F81F30B44B78DC
:10348800012B82B026D00B788A6800EB83035D6D30
:103498002C682B6900934B69D3B9009B02F07F021B
:1034A80023F4C01342F4002223F07F0313432B615B
:1034B800C378012B04BF0B696B61C4F3076363F026
:1034C8007B0363F31F642C60002002B030BC70479C
:1034D8004A61E2E785692C682B6900934B6903BB55
:1034E80043F40022009B23F4C01323F07F0313430B
:1034F8002B610093C378012B1CD0C4F3076262F0E0
:103508007B0262F31F642C60002BDDD14B69002B1A
:10351800DAD002690878516B012383400B43536367
:10352800D2E78A68934286BF4A6102F07F0303F0BC
:103538007F03D5E70A78096900EB8202C4F30763C1
:10354800926963F07B0363F31F64002051612C6070
:1035580002B030BC704700BF4B78012B09D00B7804
:1035680000EB8300426D136843F4001313600020DE
:1035780070470A78094900EB820080690268002ACE
:10358800A8BFC2F380739B0301EA124143F02003F2
:103598000B4363F31F42026000207047DFBFFFFF49
:1035A8004B78CA78012B0B7800EB8300A2F102025A
:1035B8000CBF8069406D0368012A6FF355538CBFB7
:1035C800C3F30072012262F31C730360002070478A
:1035D80003699869DB691840000C704700EB8101AA
:1035E80003694A6D90685B69184070470369986978
:1035F800DB69184080B27047436D064A1A61C27889
:10360800012A06D100F5B96058614FF08022196887
:103618001A607047180008C0F8B50646FFF7F8FBAF
:1036280075780120A6F812014DB3002133463246C1
:103638000C46402782F81811A2F81E110131A94240
:10364800C2E9487482F8190182F81B41C2F82C417A
:1036580002F12802EED100221146402083F870239F
:10366800A3F876230132AA42C3E9DE0183F8711375
:1036780083F87313C3F8841303F12803EED130469B
:10368800FFF7D2FC3046FFF753FC00213046FFF726
:10369800F3FC3046FFF732FD3046BDE8F840FFF74F
:1036A800BBBC00BF11F0800F08B58C4619D10CEBDC
:1036B8008C0E00EBCE0E282101FB0C01CEF87823EE
:1036C800002201F55C718EF870C38EF873338EF8A2
:1036D8007123022B04BF00230B71FFF7CBFD0020E1
:1036E80008BD01F07F0C0CEB8C0E00EBCE0E2821F0
:1036F80001FB0C01CEF82021012201F58C718EF816
:1037080018C18EF81B31AEF81EC18EF81921E0E7FA
:103718004FFA81FCBCF1000F08B50A460DDB2823DF
:1037280003FB010303F55C714FEADC7C0A7081F846
:1037380001C0FFF7D7FD002008BD01F07F02282354
:1037480003FB020303F58C71EEE700BF10B501F02F
:103758007F0404EB840C00EBCC0C2821CCF88433D8
:103768000023CCF87C238CF87043CCF888338CF891
:103778007133C37801FB0401012B01F55C7108BFAB
:10378800CCF880231CB9FFF779FE002010BDFFF7A5
:10379800C5FD002010BD00BF10B501F07F0404EB8B
:1037A800840E00EBCE0ECEE94922CEF82C31002350
:1037B800CEF83031282303FB040C01238EF818417E
:1037C8000CF58C718EF819311CB9FFF757FE0020E3
:1037D80010BDFFF7A3FD002010BD00BF4FFA81FC0C
:1037E800BCF1000F08B50A460FDB282303FB0103D1
:1037F80003F55C714FEADC7C01238B700A7081F859
:1038080001C0FFF7A9FE002008BD01F07F022823B0
:1038180003FB020303F58C71ECE700BF4FFA81FC50
:10382800BCF1000F10B50A460FDB282303FB010388
:1038380003F55C7100244FEADC7C8C700A7081F817
:1038480001C0FFF7ADFE204610BD01F07F0228231E
:1038580003FB020303F58C71ECE700BF0269002348
:10386800106861F30A130343136070472DE9F04FA2
:1038780083B00446FFF718FC18B9002003B0BDE870
:10388800F08F2046FFF716FC80460028F5D0C0F3DD
:10389800074313F00800009340F0C280009B5907CB
:1038A80072D418F0020F5FFA88F502D0E36802229A
:1038B8005A61B8F1000F4FEA1867C0F2778118F41F
:1038C800006FC8F3072640F01181290708D5974BE8
:1038D8001B682046DB689847E36808225A61012084
:1038E800EA063AD4F30600F12581B10600F1E0803A
:1038F800009BDA0609D58D4B1B682046DB69984783
:10390800E3684FF480125A610120009B9B0609D599
:10391800864B1B6820461B6A9847E3684FF40012E1
:103928005A6101207E0609D5804B1B6820465B6AD8
:103938009847E3684FF080425A61012069079DD596
:10394800E3685D686A0705D5784B1B6820469B6A63
:103958009847E3685D60012090E7E3689A6922F080
:1039680010029A61D3F82080C8F34342022A08F073
:103978000F0900F0C181062A00F0AB819A6942F074
:1039880010029A610120ADE72046FFF72FFE81461D
:10399800002843D0254604F118074FF0000BCDF856
:1039A800048019F0010F2ED05FFA8BF8226904EB1E
:1039B800880316699869536B806823FA08F3DB015A
:1039C800DBB23343034013F00106D8B200F009819B
:1039D800564B506B39681B684FF0010C0CFA0BFA08
:1039E80020EA0A005B685063C1F808C020464146D7
:1039F8009847E378012B00F09D81720640F1F7802B
:103A08003B6840229A605FEA59090BF1010B05F106
:103A1800280507F10407C4D1DDF80480012040E738
:103A28002046FFF7D5FD0546002800F04481DFF861
:103A3800FC90CDF8048004F15406A34600274FF00B
:103A4800020A08E06D0807F1010706F104060BF108
:103A5800280B00F02E81EB07F4D55FFA87F8414672
:103A68002046FFF7BBFDC3B2C00740F1C6803368EC
:103A780001229A60E278012A07D11A69DBF87833C3
:103A8800C2F312029B1ACBF88833D9F800304146AA
:103A98001B6820469847E378012BD3D1002FD1D15A
:103AA80094F81131052BCDD12046FFF7A5FDC9E7C4
:103AB8002046FFF7CBFBE3682046DE68FFF7B8FB3C
:103AC80003280CBF0922052262F38D260CBF0022B1
:103AD8000122A270E3680CBF4FF400724022A2805A
:103AE8004FF40052DE6001205A6101E70F4B1B685A
:103AF80020465B69984723699968E3684FF4006238
:103B08005A61A37A83B1C8070ED5D4F80C31084995
:103B18001A6842F001021A601A6842F003021A6039
:103B28000B6943F006030B610120CEE6F400002088
:103B380000ED00E0226953684FF0000823F001030C
:103B4800536041462046FFF777FA627841465AB1FA
:103B580004F1140303EB820CFF2253F8040F826074
:103B6800D86B63458260F8D10F22236962F3070896
:103B78002F2262F307014FF0FF329A614FF00112D2
:103B8800DA61C3F8148019611A686FF30A121A60AF
:103B98002046FFF731FD784BE2681B684FF48051EF
:103BA8001B6951612046984701209EE6A37A43B1DC
:103BB800D4F80C31D4F80C2123F0030161F3070386
:103BC80013606D4B22691B689969536823F00103E0
:103BD800536020468847E3684FF000425A6101204D
:103BE8006DE642070FD53B6804229A601646B30774
:103BF8000ED53B6802229A6005E7990753D53368CA
:103C0800C3F808A01EE7030747D53A680826966058
:103C180036067FF5F8AED7F800C0D5F82031DCF8C5
:103C28001860D5E94B021FFA86FE861AB34228BFF0
:103C380033460333BEEB930F664688BF614624D8EC
:103C480028E0D5F82031D5F824119E4228BF1E4619
:103C5800B3B242462046FFF7B1F8D5F83021D5F87F
:103C68002431D5F82C01324406F1030A3344824248
:103C78004FEA9A0AC5F82431C5F8302167D2396865
:103C88008B699BB29A450E4604D28242A0EB02068B
:103C9800D7D30E468023B360B5E6C60662D53B6827
:103CA80010229A60AFE65A0707D5336804229A6053
:103CB800C8E6DDF804800120F0E518077FF5C2AEFC
:103CC800D9F8003020469B689847336808229A60E4
:103CD800B8E609EB890904EBC909082204F5B961BA
:103CE8002046FFF77FF8D9F88833C8F30A18434409
:103CF800C9F88833E36841E647F6F07212EA080F1C
:103D08003FF43CAE09EB890904EBC909C8F30A186A
:103D1800D9F87C1342462046FFF764F8D9F87C337B
:103D28004344C9F87C33D9F888334344C9F8883305
:103D3800E36823E6BBF1000F7FF45FAE94F811311E
:103D4800042B7FF45AAE2046FFF756FC55E621694E
:103D580095F818014B6B3E680122824023EA020362
:103D68004B6397E7810658BF06467FF546AE3B682A
:103D780020229A6047E600BFF400002010B5074CE7
:103D88002068FF2807D0064A064B12689B68064938
:103D98009847FF232360002010BD00BF900000203B
:103DA8005C0C0020D8000020700C00204323014840
:103DB8000B807047940000201F4A1368052B70B5CC
:103DC80003F1010102D01160002070BD1B4D29785C
:103DD800002301291360F7D0194E3168B1F5006F3F
:103DE80020D0184B1C68A14223D0174A94BF641AEC
:103DF800C1F5006412FA81F2D0F8EC35B3F8393025
:103E0800A3420BD21944E41A316010490C60012115
:103E180029708121FFF7C0FC002070BD2144234692
:103E28000024F1E7074A3360146814B1064A1946BA
:103E3800E2E700232B70C7E7580C0020600C002035
:103E4800680C00206C0C0020780C0020640C00200A
:103E580001EB810138B500EBC101094D094BB1F8FF
:103E680088131B69044628469847D4F8EC352A4637
:103E7800B3F8403001212046FFF768FC002038BD28
:103E880078140020D800002038B50B7813F06002B1
:103E98000C46054610D0202A17D1CA88CAB11B067D
:103EA80034D5204B20499B6860789847E2881E49A2
:103EB800284600F0FDFA06E04B780A2B0FD00B2BB2
:103EC8001FD0062B10D0002038BD00F06FFD022057
:103ED80038BD144B48789B6811469847F3E7134957
:103EE800012200F0E5FAEEE74B881B0A212B03D1EB
:103EF800CA883A2A28BF3A220D49284600F0D8FA3B
:103F0800E1E78B785BB9094A1360DCE709490A4B9A
:103F180064780C6004491A6000F0E2FAD3E700F014
:103F280045FDD0E7D8000020700C0020B814002010
:103F3800A6000020900000205C0C002010B5812114
:103F48000446FFF7E5FB01212046FFF7E1FB82214C
:103F58002046FFF7DDFB024B5B689847002010BD49
:103F6800D8000020D0F8EC2510B50446B2F8392066
:103F780002238121FFF796FBD4F8EC250223B2F83F
:103F8800402001212046FFF78DFB032308228221D0
:103F98002046FFF787FB084A084B022191801B68DF
:103FA8009847D4F8EC35064AB3F84030012120464A
:103FB800FFF7CCFB002010BD28010020D80000200E
:103FC8007814002070B5134B1A78012A01D000200C
:103FD80070BD114C216899B1D0F8EC350F4DB3F88C
:103FE800393099420FD9CE1A29688AB21944266005
:103FF8000B4C296022448121FFF7CEFB002070BDC5
:104008001970002070BD2A680B460026114492B230
:10401800EDE700BF600C0020640C0020680C002055
:10402800780C002000207047202810B415D02128D3
:104038000FD1114B1A680A701A68120A4A705A8806
:104048008A70DA78CA701A790A715A794A719B7932
:104058008B7100205DF8044B7047074B91F804C042
:1040680048798A790C68587183F804C09A711C6081
:1040780000205DF8044B7047EC00002010B599B1A2
:1040880000EB010E094C0A4901380EF1FF3E0A689F
:1040980010F801CF04F802C0531CB3F5006F08BF35
:1040A800002386450B60F2D1002010BD780C00205B
:1040B8006C0C002070B5E9B10F4B104C1E682268DB
:1040C8000F4D014401F1FF3E013802E070451A46E8
:1040D80010D0531CB3F5806F04BF00210B4610F8B5
:1040E80001CF05F802C018BF19469E422160EDD1E4
:1040F800022070BD002070BDBC140020C014002038
:10410800C414002000207047064A116810B44B1CE4
:10411800054CB3F5006F605408BF00235DF8044BED
:10412800136070476C0C0020780C0020034A044B85
:1041380010681B68C01A18BF01207047C0140020FF
:10414800BC1400200C4B0D4A10B411681C688C423A
:1041580003460DD00A4C615C197013685DF8044B76
:1041680001200344B3F5806F08BF00231360704734
:1041780000205DF8044B7047C0140020BC140020D8
:10418800C414002010B5D0F8E43504461B699847DC
:10419800032384F81231002010BD00BF08B50422A3
:1041A800D0F8E43580F81221DB689847002008BD74
:1041B80008B5D0F8E035DB6903B19847002008BDA1
:1041C80008B5D0F8E0351B6A9847002008BD00BF45
:1041D80008B5D0F8E0355B6A9847002008BD00BFF5
:1041E80008B5D0F8E4355B699847002008BD00BFE2
:1041F800D0F8E43510B504469B699847D4F8E03503
:1042080000215B6820469847002010BD002310B5A8
:10421800194604464022FFF745FA80210023402230
:104228002046FFF73FFAD4F8E435A078012284F855
:1042380012215B689847002010BD00BF10B582B0FE
:104248006946044600F0A0FB9DF8001001F01F032A
:10425800012B0AD0022B16D073B101F08001204641
:10426800FFF7BCFA002002B010BD6946204600F0F6
:10427800EFFA002002B010BD6946204600F068F948
:10428800002002B010BD6946204600F00BFB00205C
:1042980002B010BD38B5044629B990F81131022B87
:1042A8000DD0002038BDD0F8E0355B69002BF8D080
:1042B80090F81221032AF4D19847002038BDD0F88D
:1042C8003421D0F820319A4210D9C1780129D0F888
:1042D8002411A2EB030208BFC918C0F8342108BF93
:1042E800C0F8241192B200F0F3F8DAE7D0F83821D8
:1042F800B2FBF3F503FB15255DB9934209D8D0F855
:104308003C319A4205D22A4600F0E2F8C4F83C5102
:10431800C7E7D4F8E035DB681BB194F81221032A0B
:1043280003D0204600F004F9BBE720469847F8E799
:1043380010B5044629B990F81131032B0DD000208F
:1043480010BDD0F8E0359B69002BF8D090F8122109
:10435800032AF4D19847002010BDD0F88C33D0F848
:104368007823934212D9C1780129D0F87C13A3EBA2
:10437800020304BF8918C0F87C139A4228BF1A4662
:10438800C0F88C3392B200F0BBF8D8E7D0F8E0352B
:104398001B691BB190F81221032A03D0204600F0B4
:1043A800B7F8CCE79847F9E72DE9F04104461546F8
:1043B8001E46DDF818800F46FEF776FC2046394683
:1043C800C4F8E065C4F8E485C4F8E855FFF724F9B3
:1043D800D4F8E4351B6898472046BDE8F041FEF75D
:1043E800A9BC00BFD0F8E03510B504461B68984753
:1043F800D4F8E4359B689847002010BD08B5D0F87C
:10440800E0355B689847002008BD00BF12230148CB
:104418000B80704728010020042301480B80704757
:104428002401002010B5044C04480A46214600F037
:10443800D7FA204610BD00BFC8180020904D0008CC
:1044480010B5044C04480A46214600F0C9FA204633
:1044580010BD00BFC8180020A84D000810B5044CB6
:1044680004480A46214600F0BBFA204610BD00BFAA
:10447800C8180020BC4D000810B5044C04480A4672
:10448800214600F0ADFA204610BD00BFC818002034
:10449800CC4D000810B5044C04480A46214600F0EB
:1044A8009FFA204610BD00BFC8180020D84D00084C
:1044B80008B513460A460221C0F83431C0F838312D
:1044C80080F811110021FFF767F9002008BD00BF2F
:1044D80008B513460A460021FFF75EF9002008BD1B
:1044E80008B513460A460321C0F88C33C0F8903348
:1044F80080F811110021FFF729F9002008BD00BF3D
:1045080008B513460A460021FFF720F9002008BD28
:1045180010B50023042104461A4680F811111946E3
:10452800FFF73AF92046FFF767F8002010BD00BFF3
:1045380010B50023052104461A4680F811111946C2
:10454800FFF704F92046FFF757F8002010BD00BF19
:1045580070B54B7882B00C460546092B13D8DFE8B6
:1045680003F0314212571222701287058978AE4E35
:104578000129317007D890F81231022B00F0B7806A
:10458800032B00F0A18094F90030002B01DBE388B5
:104598009BB980212846FFF721F92846FFF72CF818
:1045A800002002B070BD8B88002BECD1CB88002B8B
:1045B80073D094F90030002BEBDB00212846FFF77D
:1045C8000DF9EAE790F81231023B012BDBD8D0F85D
:1045D80014319649002B0CBF0123032301220B60E1
:1045E800FFF766FFDCE790F81231023B012BCAD8CF
:1045F8004B88012BD4D1D0F8E03500229B68C0F855
:1046080014212146284698472846FFF781FFC7E727
:104618004B88012B00F0FE80022BC1D18B88DAB2C7
:10462800002ABDD101691B0A4A68013B1046042BC8
:1046380000F2DA80DFE813F0DF00DA00D400E900E6
:10464800E4004A88130A013B062B9CD801A151F8C3
:1046580023F000BF574700081B47000877470008AA
:104668008F4500088F4500088F4500088F450008D2
:10467800CA88012A06D091F90030002B89DB002A6C
:1046880087D09AE790F81231022B3ED0032B90D1B5
:1046980000F58871FFF70CFF82E790F812314C881B
:1046A800032B3FF476AF04F07F0480F813412146D2
:1046B800FFF7D4F82846FFF72BFF002C00F0B08056
:1046C800022385F812316BE7002900F0B38090F8D7
:1046D8001011012998D0FFF791FE317885F8101153
:1046E8002846FFF77FFE2846FFF712FF58E7002904
:1046F8008AD00121032380F8101180F81231FFF7C6
:1047080071FE2846FFF704FF4AE74949FFF7D0FE44
:1047180046E7D0F8E03580789B6A0DF106019847A6
:1047280002234370C5F8EC05BDF80630002B3FF4B2
:1047380037AFE288002A3FF433AF9A4228BF1A46BF
:1047480001462846ADF80620FFF7B2FE28E7D0F864
:10475800E83580781B680DF106019847E288402A01
:1047680073D095F81231012BDED10823E2E7D2B2DB
:10477800052A3FF608AFDFE802F02B231B130B03D3
:10478800D0F8E83580789B690DF106019847CBE7AA
:10479800D0F8E83580785B690DF106019847C3E7E2
:1047A800D0F8E83580781B690DF106019847BBE71A
:1047B800D0F8E8358078DB680DF106019847B3E753
:1047C800D0F8E83580789B680DF106019847ABE78B
:1047D800D0F8E83580785B680DF106019847A3E7C3
:1047E800032363F3061002464A600DE7022363F3CE
:1047F80006100246F8E7012363F306100246F3E7C2
:10480800052363F306100246EEE7042363F306105C
:104818000246E9E7D0F8E025C0F814319368F0E6DD
:10482800012385F81231BBE6C4180020FC180020CB
:1048380000190020022380F8123180F81011FFF7C8
:10484800DDFD2846FFF764FEAAE6082375E700BFEA
:1048580038B590F81231032B04460D460AD10B796E
:10486800012B07D8D0F8E0359B689847EB88ABB1A7
:10487800002038BD95F90030002B01DBEB8843B9E7
:1048880080212046FEF7AAFF2046FEF7B5FE00204D
:1048980038BD00212046FEF7A1FFF5E72046FFF7C7
:1048A80037FEE5E738B50C468A886378012B05465C
:1048B800D1B204D0032B35D0BBB1002038BD90F85D
:1048C8001231022B15D0032B43D094F90030002B62
:1048D80047DBE388002B44D000212846FEF77EFF03
:1048E8002846FEF789FE002038BD90F81231022BC9
:1048F80004D14A06E1D0FEF771FFDEE7032BE4D1CD
:10490800130633D401EB810100EBC10191F8723336
:10491800003B18BF01231B49022228460B60FFF702
:10492800C7FDCAE790F81231022BE2D0032BCCD195
:1049380063881BB94A0601D0FEF750FFD5F8E03569
:1049480021469B68284698472846FFF7E1FD002046
:1049580038BD6388002BB0D14B06F5D0FEF75EFF5B
:10496800ECE780212846FEF739FFB9E701F07F011F
:1049780001EB810100EBC10191F81A31003B18BF2E
:104988000123C8E704190020B0F8C8350B80B0F837
:10499800CA354B80B0F8CC358B80B0F8CE35CB809B
:1049A8000122C0F83C3180F81121704710B591F907
:1049B8000030002B044601DBCB8843B92046802118
:1049C800FEF70CFF2046BDE81040FEF715BE00219B
:1049D800FEF704FF2046BDE81040FEF70DBE00BFFD
:1049E80030B400B3037803B303461C4613F8015FE1
:1049F800002DFAD1C0F101032344DBB201335B007F
:104A0800DCB2138003230C704B7004785CB1022372
:104A180000255A1CD2B2CC548D5410F8014F0233E1
:104A2800DBB2002CF5D130BC704702242346E8E7FE
:104A3800014B01221A70704708190020014B01220E
:104A48001A70704708190020014B02221A7070472B
:104A580008190020014B01221A707047081900201C
:104A6800014B01221A70704708190020014B0122DE
:104A78001A70704708190020014B01221A707047FC
:104A880008190020012900B54FF0000C01F1FF3E84
:104A980014D0624630F8023B02325BBA72451CFA07
:104AA80083FCF7D3CB0709D41FFA8CF000EB1C402A
:104AB80000EB1040C04380B25DF804FB03885BBA8A
:104AC80003F47F439C44EFE700B5094B844693E821
:104AD800030083B006220090ADF8041060466946D2
:104AE800FCF738FBB0FA80F0400903B05DF804FB2E
:104AF800E84D000800B5094B844693E8030083B0ED
:104B080006220090ADF8041060466946FCF722FBC7
:104B1800B0FA80F0400903B05DF804FB644C00086B
:104B280008B504490622FCF715FBB0FA80F04009E5
:104B380008BD00BF0800002010B5126804680B68A3
:104B480082B01340144004220DEB02016846CDE9FF
:104B58000043FCF7FFFAB0FA80F0400902B010BD3C
:104B680008B50422FCF7F6FAB0FA80F0400908BD4F
:104B780000B5042283B000230DEB02010193FCF77A
:104B8800E9FAB0FA80F0400903B05DF804FB00BF11
:104B980000B50A68036885B0D04323EA0203002100
:104BA8004FF0FF32CDE902120422CDE900300DEBBF
:104BB80002016846FCF7CEFA18B9012005B05DF885
:104BC80004FB042202A96846FCF7C4FA0028F4D0C2
:104BD800042203A96846FCF7BDFAB0FA80F0400940
:104BE80005B05DF804FB00BF10B5036884B004226B
:104BF80003F0F003E02403A90DEB020003940193F2
:104C0800FCF7A8FAB0FA80F0400904B010BD00BF64
:104C180030B5A3B02E237F22044602A8ADF8043095
:104C2800FCF728F901A902A8FCF792F970B1013C38
:104C38000025FCF7F3F9013504F8010F01A900205C
:104C4800FCF786F9042D05D00028F2D14FF0FF308B
:104C580023B030BD002023B030BD00BF00000000ED
:104C6800000000003C4E554C4C3E000030313233C1
:104C78003435363738396162636465660000000090
:104C88006D696E006D61780064696D006F6E00007B
:104C98006F6666006F692F74657374652F64696D3C
:104CA80065720000200000006F692F7465737465D9
:104CB8002F72656C617931006F692F746573746543
:104CC8002F72656C617932005055424C4953482027
:104CD80025732054656D70657261747572653A202C
:104CE80025642E25642043005055424C49534820E2
:104CF80025732048756D69646164653A2025642EC2
:104D08002564206B672F6D33000000006F692F74D6
:104D1800657374652F74656D700000006F692F747A
:104D2800657374652F68756D69646974790000002E
:104D38005055424C495348202573202573000000E4
:104D48006F692F74657374652F6C757800000000A7
:104D5800544F5049432000003137322E33312E361C
:104D6800392E3230000000003235352E3235352EDE
:104D78003235352E300000003137322E33312E36A1
:104D8800392E32353400000053544D3332205669E1
:104D9800727475616C20436F6D506F7274000000FF
:104DA80053544D6963726F656C656374726F6E6995
:104DB80063730000303030303030303030353043BD
:104DC8000000000056435020436F6E66696700007C
:104DD80056435020496E7465726661636500000031
:084DE800FFFFFFFFFFFF0000C9
:104DF000FFFFFFFF0DF0ADBA0E0000000000000045
:104E0000FFFFFFFFFFFFFFFF2000FFFFFFFF00008E
:104E10004000FFFFFFFF0000000000000000000056
:104E20000000000002000000000000000000000080
:104E30000000000001020304010203040607080940
:104E4000000000000000000001020304060708093A
:104E500000E1F5056D3F0008453F0008913E000860
:104E600000000000853D0008CD3F0008593E0008C5
:104E7000C13D00080000000000000000B53D000832
:104E8000FF00000009024300020100C032090400D3
:104E900000010202010005240010010524010001A7
:104EA000042402020524060001070582030800FF0E
:104EB00009040100020A0000000705010240000089
:104EC00007058102400000002D4000080D41000848
:104ED0003140000885400008BD40000800C20100C4
:104EE00000000800F8000020394300089D42000837
:104EF00045420008B941000815420008A5410008D4
:104F00008D410008C9410008D9410008E941000865
:104F1000F9410008040309041201000200000040E6
:104F200083044057000201020301000015440008F9
:104F300021440008494400082D4400086544000845
:104F4000814400089D440008394A0008454A000889
:104F5000514A0008814A00085D4A0008694A000871
:044F6000754A000886
:0400000508001C01D2
:00000001FF
